WAMAS     HOST      1                             120211013010000ADVISEDLU00012                1         000000010000206609  Test Center         Default             Test Center         ISO1      ISO1_100  000000002970kg   MEASURED  IG        IG-Dock 1 IG-SA 1   IG-01               020110808090000                    
WAMAS     HOST      1                             220211013010000ADVISEDLULINE00009            1         000000010000206609           1100010001           00000     000000010000100            100            1_1                                                ResNo                                                                                                                                                                                                                                                                                                                                                                                                                                                                                                                                                                                                                                                                                                                                                                                                                                                                                                                                                                                                                                                                           000000010000            Default             000000003140g                                            
WAMAS     HOST      1                             320211013010000ADVISEDLULINE00009            1         000000010000206609           2100010003           00000     000000012000100            100            1_1                                                ResNo                                                                                                                                                                                                                                                                                                                                                                                                                                                                                                                                                                                                                                                                                                                                                                                                                                                                                                                                                                                                                                                                           000000010000            Default             000000003140g                                            
WAMAS     HOST      1                             420211013010000ADVISEDLULINE00009            1         000000010000206609           3100010002           00000     000000012000100            100            1_1                                                ResNo                                                                                                                                                                                                                                                                                                                                                                                                                                                                                                                                                                                                                                                                                                                                                                                                                                                                                                                                                                                                                                                                           000000010000            Default             000000003140g                                            
